:020000040800F2
:1000000000040020C1010008C9010008CB0100085C
:10001000CD010008CF010008D10100080000000058
:10002000000000000000000000000000D3010008F4
:10003000D501000800000000D7010008D901000820
:10004000DB010008DB010008DB010008DB01000820
:10005000DB010008DB010008DB010008DB01000810
:10006000DB010008DB010008DB010008DB01000800
:10007000DB010008DB010008DB010008DB010008F0
:10008000DB010008DB010008DB010008DB010008E0
:10009000DB010008DB010008DB010008DB010008D0
:1000A000DB010008DB010008DB010008DB010008C0
:1000B000DB010008DB010008DB010008DB010008B0
:1000C000DB010008DB010008DB010008DB010008A0
:1000D000DB010008DB010008DB010008DB01000890
:1000E000DB010008DB010008DB010008DB01000880
:1000F000DB010008DB010008DB010008DB01000870
:10010000DB010008DB010008DB010008DB0100085F
:10011000DB010008DB010008DB010008DB0100084F
:10012000DB010008DB010008DB010008DB0100083F
:10013000DB010008DB010008DB010008DB0100082F
:10014000DB010008DB010008DB010008DB0100081F
:10015000DB010008DB010008DB010008DB0100080F
:10016000DB010008DB010008DB010008DB010008FF
:10017000DB010008DB010008DB01000800000000D3
:10018000DB010008DB010008DB010008DB010008DF
:10019000DB010008DB010008DB010008DB010008CF
:1001A000DB010008DB010008DB010008DFF80CD0F0
:1001B00000F018F8004800478D02000800040020F5
:1001C0000648804706480047FEE7FEE7FEE7FEE7F1
:1001D000FEE7FEE7FEE7FEE7FEE7FEE709020008AE
:1001E000AD010008064C074D06E0E06840F0010351
:1001F00094E8070098471034AC42F6D3FFF7DAFFD3
:1002000004030008140300081448006840F4700058
:10021000124908601248006840F001001049086067
:1002200000200F49083108600D4800680D4908405A
:100230000B4908600C48091D0860081F006820F47D
:100240008020091F0860002005490C3108604FF02C
:1002500000600249803908607047000088ED00E0C6
:1002600000380240FFFFF6FE1030002402E008C80C
:10027000121F08C1002AFAD170477047002001E020
:1002800001C1121F002AFBD1704700001B48006803
:1002900040F08000194908601948006820F040705B
:1002A000174908600846006840F080700860081D23
:1002B000006820F48050091D086008460068086046
:1002C000081D006820F04070091D0860084600689D
:1002D0000860081D006820F04070091D086008468D
:1002E000006840F08070086005481830006840F0F1
:1002F000805003491831086000BFFEE730380240E3
:10030000001C02401403000800000020000400004C
:040310007C02000863
:04000005080001AD41
:00000001FF
