:020000040800F2
:1000000000040020C1010008AF0300083D03000800
:10001000AB030008090200085106000800000000B8
:100020000000000000000000000000008104000843
:100030000D020008000000003D040008E50500086E
:10004000DB010008DB010008DB010008DB01000820
:10005000DB010008DB010008DB010008DB01000810
:10006000DB010008DB010008DB010008DB01000800
:10007000DB010008DB010008DB010008DB010008F0
:10008000DB010008DB010008DB010008DB010008E0
:10009000DB010008DB010008DB010008DB010008D0
:1000A000DB010008DB010008DB010008DB010008C0
:1000B000DB010008DB010008DB010008DB010008B0
:1000C000DB010008DB010008DB010008DB010008A0
:1000D000DB010008DB010008DB010008DB01000890
:1000E000DB010008DB010008DB010008DB01000880
:1000F000DB010008DB010008DB010008DB01000870
:10010000DB010008DB010008DB010008DB0100085F
:10011000DB010008DB010008DB010008DB0100084F
:10012000DB010008DB010008DB010008DB0100083F
:10013000DB010008DB010008DB010008DB0100082F
:10014000DB010008DB010008DB010008DB0100081F
:10015000DB010008DB010008DB010008DB0100080F
:10016000DB010008DB010008DB010008DB010008FF
:10017000DB010008DB010008DB010008DB010008EF
:10018000DB010008DB010008DB010008DB010008DF
:10019000DB010008DB010008DB010008DB010008CF
:1001A000DB010008DB010008DB010008DFF80CD0F0
:1001B00000F018F800480047D906000800040020A5
:1001C0000648804706480047FEE7FEE7FEE7FEE7F1
:1001D000FEE7FEE7FEE7FEE7FEE7FEE7E9050008CB
:1001E000AD010008064C074D06E0E06840F0010351
:1001F00094E8070098471034AC42F6D3FFF7DAFFD3
:10020000140700082407000800BFFEE7704700003D
:10021000002123498279002A3AD00A4612680368ED
:100220009A430B461A600A1D126803689A430B1D15
:100230001A60027911440A6803681A430A60184A6E
:100240000832126803689A43154B08331A601A1D66
:10025000126803689A43124B0C331A604279102AD1
:100260000ED11A1F126803681A430D4B08331A6027
:100270001A1D126803681A43094B0C331A600DE00B
:100280000749427911440A6803681A430A6005E085
:10029000027911440A6803689A430A6070470000B3
:1002A000003C0140F0B50A4600210023002400BFB5
:1002B0003DE0012505FA01F3156805EA03049C42B7
:1002C00034D105684F000326BE40B543056015795B
:1002D0004E00B5400668354305601579012D02D002
:1002E0001579022D16D185684F000326BE40B5430F
:1002F000856055794E00B540866835438560456810
:1003000001268E40B5434560456896798E40B6B269
:1003100035434560C5684F000326BE40B543C56000
:10032000D5794E00B540C6683543C560491C1029D3
:10033000BFD3F0BD418370470183704700BFFEE724
:100340001CB5012211460E4800F093F901218803E3
:1003500000F086F800F016F80021084600F092F848
:100360000120009000208DF8040008208DF8050081
:1003700001208DF806006846FFF74AFF1CBD00000B
:100380000000024008B54FF4C06000F04DF80620B0
:100390008DF8000001208DF801008DF802008DF825
:1003A0000300684600F004F808BD00BFFEE7704790
:1003B00070B5002100230F22C4781CB3174C2468A9
:1003C00004F4E064C4F5E064C4F30721C1F104045B
:1003D000E3B20A4144789C40E1B28478144021435E
:1003E0000C07210E0E4C05786155047804F01F05AA
:1003F0000124AC4005786D11AD0005F1E025C5F88C
:10040000004109E0047804F01F050124AC40054DCB
:100410000678761145F8264070BD00000CED00E02E
:1004200000E400E080E100E002490143024A11607B
:10043000704700000000FA050CED00E07047000076
:1004400029B1064A12680243044B1A6004E0034AC9
:1004500012688243014B1A60704700003038024036
:1004600029B1064A12680243044B1A6004E0034AA9
:1004700012688243014B1A60704700004438024002
:100480007047000030B500228B071C0F0F2303FAC2
:1004900004F20B4B8C1053F824309343084C8D100E
:1004A00044F8253023468C1053F824308C07240F51
:1004B00000FA04F42343024C8D1044F8253030BD7B
:1004C000083801400CB500200190009041480068B8
:1004D00040F480303F49086000BF3E48006800F4A7
:1004E000003000900198401C0190009818B90198C4
:1004F000B0F5A04FF1D13748006800F4003010B1DA
:100500000120009001E0002000900098012860D1B7
:1005100030484030006840F080502E49403108603B
:100520002D48006840F440402B49086029480830B5
:1005300000682849083108600846006840F4004017
:1005400008600846006840F4A05008602348091F6E
:100550000860081F006840F08070091F086000BF35
:100560001C48006800F000700028F9D01A480068A4
:1005700040F480301849086000BF1748406800F414
:1005800080300028F9D01448006840F40030124947
:10059000086000BF1048406800F400300028F9D01F
:1005A00040F205700E4908600A480830006820F0E3
:1005B00003000849083108600846006840F002005E
:1005C000086000BF03480830006800F00C000828ED
:1005D000F8D10CBD0038024000700040195A4007A5
:1005E000003C02407047000010B51548006840F418
:1005F0007000134908601348006840F00100114979
:10060000086000200F49083108600E4800680E4954
:1006100008400C4908600D48091D0860081F006863
:1006200020F48020091F0860002006490C31086072
:10063000FFF748FF4FF0006001498039086010BDA6
:1006400088ED00E000380240FFFFF6FE1030002485
:1006500000BFFEE702E008C8121F08C1002AFAD155
:1006600070477047002001E001C1121F002AFBD132
:1006700070477CB506460C46154601212846FFF713
:10068000DFFE00208DF804008DF807000094694615
:100690003046FFF707FE7CBD1CB501218020FFF727
:1006A000CFFE01208DF8040000208DF80600012007
:1006B0008DF8070000208DF805004FF4E050009001
:1006C00069460448FFF7EEFD01214FF4E05000F0C9
:1006D0000BF81CBD001C024000BFFFF7DDFFFFF759
:1006E0002FFE00BFFEE7000070B504460D4615B1B1
:1006F000012D0AD104E021460548FFF71BFE04E066
:1007000021460348FFF718FE00BF00BF70BD000080
:10071000001C024024070008000000200004000024
:040720006406000863
:04000005080001AD41
:00000001FF
